:03000000020030CB
:03000B000200EB05
:10003000780079007A017B027C037D047E057F00D5
:10004000758901758A01758CDCD28CD2A9D2AF0278
:100050000052BFFF067F0011B2B290B806027800CE
:1000600000B80004E9020085B80104EA020085B87E
:100070000204EB020085B80304EC020085B8040416
:10008000ED020085EE9000FE93D2A6F580C2A69008
:100090000108E893D2A7F580C2A7D2D47401B510A5
:1000A0000C40007800B291C2D408020052C2D402BF
:1000B000005200BE0028BD0021BC001ABB0013BACC
:1000C000000CB90005C2AFC2A322190200E01A0257
:1000D00000E21B0200E41C0200E61D0200E81E22F2
:1000E0007A097B057C097D057E092200758A0175E8
:1000F0008CE60F20D406D2D408C2D43208323F0690
:0E0100005B4F666D7D077F6FFEFDFBF7EFDF47
:00000001FF
