:03000000020030CB
:03000B000200FAF6
:10003000780079007A037B007C057D017E057F00D6
:10004000D2D4B2927B00C2D4758901758A01758CB5
:10005000F0D28CD2A9D2AF02005ABFFF077F0012A4
:100060000115B29000B80004E9020089B80104EA61
:10007000020089B80204EB020089B80304EC020014
:1000800089B80404ED020089EE9002F493D2A6F53B
:1000900080C2A69002FEE893D2A7F580C2A7120103
:1000A0008420001D12019A1201EB300605C20612CF
:1000B000027F300305C2031202E2D2D4E513B4007A
:1000C000030200E2BB0107C2D412015D8014BB022F
:1000D00007C2D412016A800ABB0307C2D412017797
:1000E0008000D2D47401B510030200EE50077800EE
:1000F000C2D412014EC2D402005A00758A01758C16
:10010000F0300D020507051005113002020512300E
:10011000050205143200BE0028BD0021BC001ABB38
:100120000013BA000CB90005C2A3C20922190201CA
:10013000431A0201451B0201471C0201491D02012D
:100140004B1E227A097B057C097D057E09220874F5
:1001500006B50004780080045002780022B800033D
:1001600012014EB8010312014E22B8020312014ED1
:10017000B8030312014E22B8040312014EB805035E
:0301800012014E1B
:1001830022D2D47432B51103800322500700B20087
:100193007900C2D4C2D42220B002D201300105308A
:1001A300B002D202D2D4BA051B7A00C201C2023015
:1001B300B00BC202B293D203C2D40201E4D202C290
:1001C300D40201E4401B7A00C201C20230B00BC268
:1001D30002B293D203C2D40201E4D202C2D4020116
:1001E300E4200202C202002220B102D2043004053C
:1001F30030B102D205E514B40518751400C204C267
:100203000530B109C205B294D20602022FD205020B
:10021300022F4018751400C204C20530B109C2058B
:10022300B294D20602022FD20502022F200502C287
:10023300052220B202D20730070530B202D208E508
:1002430015B40518751400C207C20830B209C208F4
:10025300B295D206020279D20802027940187514C7
:1002630000C207C20830B209C208B295D206020220
:1002730079D208020279200802C20822E513B401E8
:1002830003020294B402030202AEB403030202C8DF
:100293002200E502B40911E501B4090675010075F0
:1002A300020005017502002205022200E504B409DB
:1002B30011E503B405067503007504000503750411
:1002C300002205042200E506B40911E505B405067C
:0602D30075050075060030
:1002D900050575060022050622E513B40304751306
:1002E90000225003051322751300223F065B4F6657
:0B02F9006D7D077F6FFEFDFBF7EFDF60
:00000001FF
