:03000000020030CB
:03000B00020130BF
:10003000780079007A037B007C057D017E057F00D6
:10004000D2D4B2927B00C2D4758901758A01758CB5
:10005000F0D28CD2A9D2AF02005ABFFF067F0011A6
:10006000F9B29000B80004E9020088B80104EA027D
:100070000088B80204EB020088B80304EC02008890
:10008000B80404ED020088EE90028E93D2A6F580AB
:10009000C2A6900298E893D2A7F580C2A712018168
:1000A00020001D1201971201E8300605C206120257
:1000B00032300305C20312027CD2D4E513B400032C
:1000C0000200E1BB0107C2D412015A8014BB02072F
:1000D000C2D4120167800ABB0307C2D41201748024
:1000E00000D2D47401B510030200ED50077800C2AD
:1000F000D412014BC2D402005A00BE0026BD001F1C
:10010000BC0018BB0011BA000AB90003C2A322192F
:100110000201251A0201271B0201291C02012B1DC5
:1001200002012D1E227A097B057C097D057E0922AC
:1001300000758A01758CF0300D0205070510051158
:100140003002020512300502051432087406B500AB
:1001500004780080045002780022B8000312014B9A
:10016000B8010312014B22B8020312014BB803037A
:1001700012014B22B8040312014BB8050312014BC4
:01018000225C
:10018100D2D47432B51103800322500700B2007932
:1001910000C2D4C2D42220B002D20130010530B055
:1001A10002D202D2D4BA051B7A00C201C20230B017
:1001B1000BC202B293D203C2D40201E1D202C2D471
:1001C1000201E1401B7A00C201C20230B00BC2023F
:1001D100B293D203C2D40201E1D202C2D40201E13C
:1001E100200202C202002220B102D20430040530F2
:1001F100B002D205E514B40518751400C204C20595
:1002010030B109C205B294D20602022CD205020213
:100211002C4018751400C204C20530B109C205B2E0
:1002210094D20602022CD20502022C200502C2053C
:1002310022E513C2D4B40103020249B4020302024B
:100241005AB4030302026B2200BA090BB9090479FB
:10025100007A00097A00220A2200BC090BBB0504BE
:100261007B007C000B7C00220C2200BE090BBD052B
:10027100047D007E000D7E00220E22E513B40304EE
:10028100751300225003051322751300223F065BEC
:0D0291004F666D7D077F6FFEFDFBF7EFDF11
:00000001FF
