:03000000020030CB
:03000B000201707F
:10003000780079007A037B007C057D017E057F00D6
:10004000D2D4B2927B00C2D4758901758A01758CB5
:10005000F0D28CD2A9D2AF02005ABFFF067F003186
:1000600039B29000B80004E9020088B80104EA023D
:100070000088B80204EB020088B80304EC02008890
:10008000B80404ED020088EE90020C93D2A6F5802D
:10009000C2A6900216E893D2A7F580C2A71201E388
:1000A00020005D20B002D20130010530B002D20242
:1000B000D2D4BA051B7A00C201C20230B00BC20210
:1000C000B293D203C2D40200EDD202C2D40200ED38
:1000D000401B7A00C201C20230B00BC202B293D2FE
:1000E00003C2D40200EDD202C2D40200ED2002020B
:1000F000C20200300305C2031201F9E513B4000384
:10010000020121BB0107C2D41201BC8014BB02074B
:10011000C2D41201C9800ABB0307C2D41201D6801F
:1001200000D2D47401B5100302012D50077800C22B
:10013000D41201ADC2D402005A00BE0026BD001F79
:10014000BC0018BB0011BA000AB90003C2A32219EF
:100150000201651A0201671B0201691C02016B1D85
:1001600002016D1E227A097B057C097D057E09222C
:0E01700000758A01758CF00F20D41D30D30F5E
:10017E00D2D4C2D308093002010AC2D4D2D332D2A9
:10018E00D408093002010AC2D43230D30BC2D308CC
:10019E00093002020A32D2D308093002010A3208AB
:1001AE007406B50004780080045002780022B8006E
:1001BE00031201ADB801031201AD22B80203120100
:1001CE00ADB803031201AD22B804031201ADB80598
:1001DE00031201AD22D2D47432B511038003225022
:1001EE000700B2007900C2D4C2D422E513B40304CE
:1001FE0075130022500305132275130022223F06A9
:0E020E005B4F666D7D077F6FFEFDFBF7EFDF38
:00000001FF
