:03000000020030CB
:03000B000201648B
:10003000780079007A007B007C057D017E057F00D9
:10004000D2D47A04C2D4758901758A01758CF0D234
:100050008CD2A9D2AF020058BFFF067F00312DB26B
:100060009000B80004E9020086B80104EA020086A4
:10007000B80204EB020086B80304EC020086B80460
:1000800004ED020086EE9001ED93D2A6F580C2A6A3
:100090009001F7E893D2A7F580C2A71201D72000FC
:1000A0007420B002D20130010530B002D202D2D4A5
:1000B000BA05197A00C201C20230B009C202B29375
:1000C000C2D40200E7D202C2D40200E740197A008B
:1000D000C201C20230B009C202B293C2D40200E728
:1000E000D202C2D40200E7200202C202D2D4BA0075
:1000F00005C2D402011500BA0107C2D41201B080B2
:1001000014BA0207C2D41201BD800ABA0307C2D4CE
:100110001201CA8000D2D47401B51003020121502B
:10012000077800C2D41201A1C2D402005800BE0058
:1001300026BD001FBC0018BB0011BA000AB900039D
:10014000C2A322190201591A02015B1B02015D1CA4
:1001500002015F1D0201611E227A097B057C097D77
:10016000057E092200758A01758CF00F20D41D30A0
:0B017000D30FD2D4C2D3080930020123
:10017B000AC2D4D2D332D2D408093002010AC2D473
:10018B003230D30BC2D308093002020A32D2D30861
:10019B00093002010A32087406B5000478008004A5
:1001AB005002780022B800031201A1B8010312011A
:1001BB00A122B802031201A1B803031201A122B8B4
:1001CB0004031201A1B805031201A122D2D4743287
:1001DB00B51103800322500700B2007900C2D4C2CC
:1001EB00D4223F065B4F666D7D077F6FFEFDFBF7ED
:0201FB00EFDF34
:00000001FF
