:03000000020030CB
:03000B000200EF01
:10003000780079007A007B007C057D017E057F00D9
:10004000758901758A01758CF0D28CD2A9D2AF0264
:100050000052BFFF067F0011B8B29000B80004E95B
:10006000020080B80104EA020080B80204EB02003A
:1000700080B80304EC020080B80404ED020080EEB6
:1000800090015093D2A6F580C2A690015AE893D26F
:10009000A7F580C2A712013A209105B2921201136E
:1000A000D2D47401B510030200AC50077800C2D45A
:1000B000120104C2D402005200BE0026BD001FBCC3
:1000C0000018BB0011BA000AB90003C2A32219022A
:1000D00000E41A0200E61B0200E81C0200EA1D020E
:1000E00000EC1E227A097B057C097D057E09220031
:1000F000758A01758CF00F20D407D2D40809C2D4B8
:1001000032080932087406B50004780080045002F1
:10011000780022B80003120104B80103120104227E
:10012000B80203120104B8030312010422B8040345
:10013000120104B8050312010422D2D47432B5119D
:1001400003800322500700B2917900C2D4C2D422A6
:100150003F065B4F666D7D077F6FFEFDFBF7EFDFB0
:00000001FF
