:03000000020030CB
:03000B0002010EE1
:10003000780079007A007B007C007D017E057F00DE
:10004000D2D47B00C2D4758901758A01758CF0D237
:100050008CD2A9D2AF020058BFFF077F0012013334
:10006000B29000B80004E9020087B80104EA020077
:1000700087B80204EB020087B80304EC020087B8DB
:100080000404ED020087EE90035093D2A6F580C2DF
:10009000A690035AE893D2A7F580C2A71201A22026
:1000A00000331201B812020912024F120295300CED
:1000B00006C20CC20DD2A3300904C209D20D30060B
:1000C00005C2061202DB300305C20312033ED2D47E
:1000D000E513B400030200F6BB0107C2D412017B92
:1000E0008014BB0207C2D4120188800ABB0307C276
:1000F000D41201958000D2D47401B510030201021C
:1001000050077800C2D412016CC2D40200580075A6
:100110008A01758CF0300D020507051005113002BB
:1001200002051230050205143008020515300B02D5
:1001300005163200BE0028BD0021BC001ABB00130A
:10014000BA000CB90005C2A3C20D22190201611A3E
:100150000201631B0201651C0201671D0201691E89
:10016000227A097B057C097D057E0922087406B583
:100170000004780080045002780022B800031201C5
:010180006C12
:10018100B8010312016C22B8020312016CB8030317
:1001910012016C22B8040312016CB8050312016C40
:1001A10022D2D47432B51103800322500700B20069
:1001B1007900C2D4C2D42220B002D201300105306C
:1001C100B002D202D2D4BA051B7A00C201C20230F7
:1001D100B00BC202B293D203C2D4020202D202C253
:1001E100D4020202401B7A00C201C20230B00BC22B
:1001F10002B293D203C2D4020202D202C2D40202D8
:1002010002200202C202002220B102D204300405FF
:1002110030B102D205E514B40516751400C204C24A
:100221000530B107C205D206020249D205020249D0
:100231004016751400C204C20530B107C205D206CA
:10024100020249D205020249200502C2052220B25A
:1002510002D20730070530B202D208E515B40516FF
:10026100751500C207C20830B207C208D2090202DE
:100271008FD20802028F4016751500C207C20830DE
:10028100B207C208D20902028FD20802028F2008E7
:1002910002C2082220B302D20A300A0530B302D2C8
:1002A1000BE516B40516751600C20AC20B30B3076A
:1002B100C20BD20C0202D5D20B0202D54016751622
:1002C10000C20AC20B30B307C20BD20C0202D5D254
:0F02D1000B0202D5200B02C20B22E513B401036E
:1002E0000202F0B4020302030AB40303020324224D
:1002F00000E502B40911E501B409067501007502B3
:100300000005017502002205022200E504B409116E
:10031000E503B405067503007504000503750400C4
:100320002205042200E506B40911E505B4050675A9
:100330000500750600050575060022050622E51371
:10034000B403047513002250030513227513002211
:100350003F065B4F666D7D077F6FFEFDFBF7EFDFAE
:00000001FF
